:100000000C9455000C946C000C946C000C946C00D7
:100010000C946C000C946C000C946C000C946C00B0
:100020000C946C000C946C000C946C000C946C00A0
:100030000C946C000C946C000C946C000C946C0090
:100040000C946C000C946C000C946C000C946C0080
:100050000C946C000C946C000C946C000C946C0070
:100060000C946C000C946C000C946C000C946C0060
:100070000C946C000C946C000C946C000C946C0050
:100080000C946C000C946C000C946C009D009D0012
:1000900093009300950095009700970097009900B2
:1000A000990099009B009B009B0011241FBECFEF7D
:1000B000D0E4DEBFCDBF11E0A0E0B1E0E0E6F1E0CA
:1000C00000E00BBF02C007900D92AE30B107D9F728
:1000D0000E947F000C94AE000C940000CF93C82FB8
:1000E0008A3019F48DE00E946E009091C00095FF57
:1000F000FCCFC093C60080E090E0CF91089511B886
:100100008FEF82B987B918B820E080B1E82FEF707F
:100110008E2F90E0FC013197EF30F10578F4EA5B27
:10012000FF4F0C94A50020E709C028E307C02CE38B
:1001300005C02EE303C02FE301C020E680B1807F1D
:10014000803309F4206828B9E0CFEE0FFF1F0024A8
:10015000001C0BBE0790F691E02D0994F894FFCF98
:0E01600000000002000000006E000000000021
:00000001FF
