:100000000C944E000C946D000C946D000C946D00DB
:100010000C946D000C946D000C946D000C946D00AC
:100020000C946D000C946D000C946D000C946D009C
:100030000C946D000C946D000C946D000C946D008C
:100040000C946D000C946D000C946D000C946D007C
:100050000C946D000C946D000C946D000C946D006C
:100060000C946D000C946D000C946D000C946D005C
:100070000C946D000C946D000C946D000C946D004C
:100080000C946D000C946D000C946D0001010F0137
:100090001D012D015D01640174017B0111241FBE4E
:1000A000CFEFD0E4DEBFCDBF11E0A0E0B1E0E6EAE3
:1000B000F6E000E00BBF02C007900D92A032B1073E
:1000C000D9F711E0A0E2B1E001C01D92A832B1075A
:1000D000E1F70E94C1010C9451030C940000CF92EF
:1000E000DF92EF92FF926B017C012091220130910F
:1000F000230140912401509125010E94D8018823B9
:1001000009F458C020E030E0A901C701B6010E94FF
:10011000D801811106C0E1E9F0E080818870808318
:1001200005C0E1E9F0E080818360808328E539E360
:1001300044E75FE3C701B6010E94D80188233CF47D
:100140008FEF9FEF909399008093980027C020E055
:1001500034E244EF56E4C701B6010E94EA021816E1
:100160002CF4109299001092980018C020E030E012
:1001700040E053E4C701B6010E94EE029B01AC01CE
:1001800060E074E284EF9AE40E94DC010E94440281
:1001900061507109709399006093980010929500D6
:1001A00010929400C0922201D0922301E092240187
:1001B000F0922501FF90EF90DF90CF90089580E4BA
:1001C000809390008BE08093910060E070E0CB0121
:1001D0000E946F000895109290001092910008956F
:1001E00080B18095877080932101E0912601F09184
:1001F0002701E830F10508F08DC0EA5BFF4F0C9451
:10020000CF01813039F482E090E090932701809310
:10021000260180C010922701109226017BC08130F8
:1002200029F0109227011092260174C081E090E01D
:1002300090932701809326016DC0813039F482E0CC
:1002400090E0909327018093260164C083E090E0C2
:1002500090932701809326015DC0823071F48091D4
:100260002001873018F48F5F8093200184E090E0B4
:1002700090932701809326014DC0843071F48091C2
:100280002001882319F081508093200186E090E0BE
:1002900090932701809326013DC0813039F481E09D
:1002A00090E0909327018093260134C083E090E092
:1002B00090932701809326012DC085E090E09093D4
:1002C00027018093260126C0823039F485E090E032
:1002D00090932701809326011DC083E090E09093C6
:1002E00027018093260116C087E090E090932701B4
:1002F000809326010FC0843039F487E090E090931A
:1003000027018093260106C083E090E090932701A7
:1003100080932601809126019091270182309105DA
:1003200069F018F4892B39F008958430910549F06B
:100330000697B9F008950E94EB0008950E94DF002F
:100340000895E0912001F0E0EE0FFF1FEE0FFF1F78
:10035000E050FF4F60817181828193810E946F0024
:100360000895E0912001F0E0EE0FFF1FEE0FFF1F58
:10037000E050FF4F60817181828193810E946F0004
:10038000089511B88FEF82B984B915B80E94DF00C3
:1003900010922701109226010E94F000FDCFEE0F6F
:1003A000FF1F0024001C0BBE0790F691E02D09945E
:1003B0009CD008F481E008950CD0D2C0CAD040F09F
:1003C000C1D030F021F45F3F19F0B3C05111FCC02F
:1003D000B6C0D7D098F39923C9F35523B1F3951B31
:1003E000550BBB27AA2762177307840738F09F5F56
:1003F0005F4F220F331F441FAA1FA9F333D00E2EC5
:100400003AF0E0E830D091505040E695001CCAF731
:1004100029D0FE2F27D0660F771F881FBB1F2617F6
:1004200037074807AB07B0E809F0BB0B802DBF01C9
:10043000FF2793585F4F2AF09E3F510568F079C01F
:10044000C3C05F3FECF3983EDCF3869577956795E4
:10045000B795F7959F5FC9F7880F911D969587957A
:1004600097F90895E1E0660F771F881FBB1F621799
:1004700073078407BA0720F0621B730B840BBA0B57
:10048000EE1F88F7E095089504D06894B1119CC0E0
:1004900008957FD088F09F5790F0B92F9927B751D2
:1004A000A0F0D1F0660F771F881F991F1AF0BA9538
:1004B000C9F712C0B13081F086D0B1E0089583C091
:1004C000672F782F8827B85F39F0B93FCCF386952E
:1004D00077956795B395D9F73EF49095809570958B
:1004E00061957F4F8F4F9F4F0895990F0008550FCB
:1004F000AA0BE0E8FEEF16161706E807F907C0F0AA
:1005000012161306E407F50798F0621B730B840BB1
:10051000950B39F40A2661F0232B242B252B21F48B
:1005200008950A2609F4A140A6958FEF811D811D2B
:10053000089597F99F6780E870E060E008959FEF65
:1005400080EC089500240A9416161706180609066A
:10055000089500240A941216130614060506089539
:10056000092E0394000C11F4882352F0BB0F40F4C1
:10057000BF2B11F460FF04C06F5F7F4F8F4F9F4F01
:10058000089557FD9058440F551F59F05F3F71F083
:100590004795880F97FB991F61F09F3F79F08795EA
:1005A0000895121613061406551FF2CF4695F1DF73
:1005B00008C0161617061806991FF1CF8695710503
:1005C000610508940895E894BB2766277727CB0137
:1005D00097F908958ADF08F48FEF08950BD0C0CF04
:1005E000B1DF28F0B6DF18F0952309F0A2CFA7CF2E
:1005F0001124EACFC6DFA0F3959FD1F3950F50E009
:10060000551F629FF001729FBB27F00DB11D639FC4
:10061000AA27F00DB11DAA1F649F6627B00DA11D6A
:10062000661F829F2227B00DA11D621F739FB00D10
:10063000A11D621F839FA00D611D221F749F332780
:10064000A00D611D231F849F600D211D822F762F19
:100650006A2F11249F5750408AF0E1F088234AF016
:10066000EE0FFF1FBB1F661F771F881F9150504062
:10067000A9F79E3F510570F05CCFA6CF5F3FECF32A
:10068000983EDCF3869577956795B795F795E7954E
:100690009F5FC1F7FE2B880F911D9695879597F95F
:0606A0000895F894FFCF5D
:1006A600A4D082437BD49243A4D0A443719DAE438D
:1006B6000000C4430000DC43A4F0F64300D002442B
:00000001FF
