:100000000C9446000C9465000C9465000C946500FB
:100010000C9465000C9465000C9465000C946500CC
:100020000C9465000C9465000C9465000C946500BC
:100030000C9465000C9410010C9465000C94650000
:100040000C9465000C9465000C9465000C9465009C
:100050000C9465000C9465000C9465000C9465008C
:100060000C9465000C9465000C9465000C9465007C
:100070000C9465000C9465000C9465000C9465006C
:100080000C9465000C9465000C94650011241FBE4F
:10009000CFEFD0E4DEBFCDBF11E0A0E0B1E0E2ECF5
:1000A000F4E000E00BBF02C007900D92A231B1074F
:1000B000D9F711E0A2E1B1E001C01D92AC31B10766
:1000C000E1F70E9435020C945F020C94000040E0BE
:1000D00050E00CC000002F5F3F4F02C020E030E036
:1000E000273063E03607B4F34F5F5F4F4817590777
:1000F000ACF308955E9888B95F9A00005F9882E03B
:1001000090E00E946700089581E00E947A000895BF
:10011000813120F481580E947A00089581550E940F
:100120007A00089584E690E00E94670088E30E94C8
:100130007A0086E00E947A008FE00E947A0081E0D7
:100140000E947A008AE090E00E94670008955E9A1B
:1001500088B95F9A00005F9881E090E00E94670094
:100160000895EF92FF920F931F93CF93DF93182F71
:10017000EB010E9484000EC001E0010F812F0E945C
:1001800088007E018FEFE81AF80A88810E94A70094
:10019000102FE70188818111EFCFDF91CF911F915F
:1001A0000F91FF90EF900895CF93C82F8A3019F4E4
:1001B0008DE00E94D4009091C00095FFFCCFC093C9
:1001C000C60080E090E0CF9108958BE0809381009D
:1001D0008DE790E0909389008093880082E080937F
:1001E0006F00109285001092840080910001909120
:1001F0000101A0910201B09103018093120190933B
:100200001301A0931401B09315018FB780688FBFBD
:10021000089510928100089581E080931601089559
:100220001F920F920FB60F9211240BB60F922F93BD
:100230003F934F935F936F937F938F939F93AF936E
:10024000BF93EF93FF938091120190911301A091BE
:100250001401B09115010197A109B1098093120110
:1002600090931301A0931401B0931501892B8A2B4D
:100270008B2B91F40E940C0180910001909101015F
:10028000A0910201B0910301809312019093130198
:10029000A0931401B0931501FF91EF91BF91AF911D
:1002A0009F918F917F916F915F914F913F912F918E
:1002B0000F900BBE0F900FBE0F901F90189560937C
:1002C00000017093010180930201909303016093F8
:1002D00012017093130180931401909315010895F6
:1002E0000E94840080B1809581708093170190B145
:1002F0009095927090931B012091180130911901F3
:100300002130310509F492C028F02230310509F47A
:1003100047C008958823B9F0911115C080911A0142
:10032000893050F48F5F80931A0181E090E09093C0
:10033000190180931801089581E090E090931901CC
:10034000809318010895811117C09923A9F0809115
:100350001A01882351F0815080931A0181E090E0C6
:100360009093190180931801089581E090E0909393
:100370001901809318010895882359F0992349F0B1
:1003800010921A0181E090E0909319018093180176
:10039000089582E090E090931901809318010895E8
:1003A0008823B9F0911115C080911A01893050F459
:1003B0008F5F80931A0181E090E090931901809300
:1003C0001801089581E090E090931901809318013D
:1003D0000895811117C09923A9F080911A018823EB
:1003E00051F0815080931A0181E090E090931901BF
:1003F00080931801089581E090E090931901809313
:1004000018010895882359F0992349F010921A0190
:1004100081E090E09093190180931801089582E0A3
:1004200090E090931901809318010895811109C0FB
:10043000911107C082E090E0909319018093180118
:100440000895882359F0992349F010921A0181E008
:1004500090E09093190180931801089581E090E055
:100460009093190180931801089511B88FEF82B904
:1004700087B918B88AB91BB862E370E080E090E0F1
:100480000E945F010E94E5000E9492000E94840089
:1004900081E00E94880010921A01109219011092B6
:1004A00018010E94700180911A01805D0E94A700CE
:1004B000809116018823E1F310921601F2CFF8948F
:0204C000FFCF6C
:1004C200010000000000000200000000D400000053
:0204D200000028
:00000001FF
